:100000000C942A000C9447000C9447000C94470071
:100010000C9447000C9447000C9447000C94470044
:100020000C9447000C9447000C9447000C94470034
:100030000C9447000C9447000C9447000C94470024
:100040000C9447000C9447000C9447000C94470014
:100050000C94470011241FBECFE5D4E0DEBFCDBF16
:1000600010E0A0E6B0E0E0ECF2E002C005900D92F6
:10007000A036B107D9F710E0A0E6B0E001C01D92AC
:10008000A036B107E1F70E9497000C945E010C9432
:1000900000008DE78BBB8FE39DE0A3E08150904093
:1000A000A040E1F700C000008DE68BBB8FE39DE030
:1000B000A3E081509040A040E1F700C0000086E638
:1000C0008BBB8FE39DE0A3E081509040A040E1F71F
:1000D00000C000008FE48BBB8FE39DE0A3E0815064
:1000E0009040A040E1F700C000008BE58BBB8FE3A0
:1000F0009DE0A3E081509040A040E1F700C00000E7
:1001000080E38BBB8FE39DE0A3E081509040A04053
:10011000E1F700C000008FE38BBB8FE39DE0A3E01D
:1001200081509040A040E1F700C0000008958FEF9B
:100130008ABB1BBA9FE394BB15BA18BA97EE97BB5C
:1001400081BBC4E20F2EF4E8EF2EF02D0F2EF2E269
:10015000FF2EF02D01E214E1DCE00F2EF4E4DF2E9F
:10016000F02D0F2EF1E8CF2EF02D879B4AC0869BF5
:1001700048C0809B46C0819B44C0829B42C0839BF9
:1001800040C0849B3EC0859B3CC0C5BBE8BA0E9472
:100190004900F5BA8FE39DE0A3E081509040A04074
:1001A000E1F700C0000005BB0E94490015BB8FE3CA
:1001B0009DE0A3E081509040A040E1F700C0000026
:1001C000D5BB0E944900C5BBD8BA8FE39DE0A3E030
:1001D00081509040A040E1F700C00000C5BBC8BB03
:1001E0000E94490092E898BB8FE39DE0A3E0815014
:1001F0009040A040E1F700C00000C8BA0E9449004A
:10020000B4CF87993CC086993AC0809938C081990B
:1002100036C0829934C0839932C0849930C08599A0
:100220002EC0C5BBE8BA0E944900F5BA8FE39DE035
:10023000A3E081509040A040E1F700C0000005BB62
:100240000E94490015BB8FE39DE0A3E081509040E0
:10025000A040E1F700C00000D5BB0E944900C5BB2B
:10026000D8BA8FE39DE0A3E081509040A040E1F731
:1002700000C00000C5BBC8BB0E94490076CF879B69
:1002800074CF869972CF809970CF81996ECF829901
:100290006CCF83996ACF849968CF859966CFC5BBA7
:1002A0008FE39DE0A3E081509040A040E1F700C0C3
:1002B0000000C5BBC8BA0E94490057CFF894FFCFD1
:00000001FF
